:020000040000FA
:0600000028EF13F01200CE
:020006001200E6
:0800080007EF00F01200DACF4F
:10001000E4FFE2CFDAFFE9CFE4FFEACFE4FFE65204
:100020009EAA1BD09E9AAB50040B03E1AB50020B6F
:1000300005E0AB9EAB8E9E9A8B960FD00001050E0D
:10004000856F00018751EA6A740FE96E000EEA229B
:10005000AECFEFFF872B0F0E87179EA028D09E9064
:10006000FC0ECF6E180ECE6E0001622B000E6323C5
:10007000010E0001C46FC56B0E012D2B000E2E2347
:100080002F2B30230A0E2D5D000E2E5906E32D6B0B
:100090002E6B010E0001C86FC96B0E01E80E2F5DBB
:1000A000030E305904E32F6B306B350E2C6FE55285
:1000B000E5CFEAFFE5CFE9FFE5CFDAFF1100D9CFC1
:1000C000E6FFE1CFD9FF0E0EE126DF6A010EDB6A03
:1000D000020EDB6AD950030FE96EDACFEAFFEE6A4F
:1000E000EE6A050EDB6A060EDB6A070EDB6A080E97
:1000F000DB6A090EDB6A0A0EDB6A0B0EDB6A0C0E8A
:10010000DB6A0D0EDB6A2EEC09F0E2EC08F023EC62
:1001100012F0F28CF28ECD80A00EE66E01EC13F0A0
:10012000E5521E0EE66E01EC13F0E552F1EC08F01C
:10013000AEEC07F0350E0E01295D62E1296BFF0E72
:100140000E011515146E156A14C008F015C009F0DB
:1001500067EC0CF0090E07C0DBFF0A0E08C0DBFFDE
:100160000B0E09C0DBFF0C0E0AC0DBFF146A156A18
:10017000C80E166E420E176E090EDBCF18F00A0E6F
:10018000DBCF19F00B0EDBCF1AF00C0EDBCF1BF020
:1001900018C00CF019C00DF01AC00EF01BC00FF003
:1001A00014C007F015C008F016C009F017C00AF017
:1001B0007CEC0CF0090E07C0DBFF0A0E08C0DBFF69
:1001C0000B0E09C0DBFF0C0E0AC0DBFF090EDBCFF4
:1001D00007F00A0EDBCF08F00B0EDBCF09F00C0E98
:1001E000DBCF0AF0F1EC0DF008C014F009C015F0F7
:1001F00014C0E6FF15C0E6FF3BEC09F0E552E552FE
:1002000095D70E0EE15C02E2E16AE552E16EE5523D
:06021000E7CFD9FF120048
:0A0216000300BC2600002C0E0000BF
:100220001500000090260000000E00002C000000C9
:0C0230006C260000880000002400000084
:04023C00D9CFE6FF31
:10024000E1CFD9FF060EE126DE6ADD6A020EDB6829
:10025000030EDB68FB0EDBCF14F0DB06FC0EDBCFFE
:1002600015F001E2DB06145015103DE0020EDBCF65
:10027000E6FFFD0EDBCFE9FFDB2AFE0EDBCFEAFF58
:1002800001E3DB2AEF50E552E718E66ED950040F80
:10029000E96EDACFEAFFE552E750EE6EED6A030E43
:1002A000DBCFE6FF040EDBCFF6FF050EDBCFF7FF5B
:1002B000C20EF626200EF7220800F550E552E71888
:1002C000E76E020EE7CFDBFF040EDBCFF6FF050E75
:1002D000DBCFF7FFC20EF626210EF7220800030E31
:1002E000F5CFDBFFB7D7020EDB50146E156A14C0D2
:1002F00015F0146A14C0DEFF15C0DDFF030EDB50DD
:10030000DE26000EDD22020EDBCF2AFE030EDBCF3F
:100310002BFEDECF14F0DDCF15F014C0F3FF15C0B7
:10032000F4FF060EE15C03E200D0E16AE552E16E03
:10033000E552E7CFD9FF120000018651E66EE66A6A
:10034000640EE66E000EE66E3EEC12F0E552E552EB
:10035000E552E5521200D9CFE6FFE1CFD9FF0C0EEE
:10036000E1260B0EDB6A77C0DFFF010EDFCFDBFF7C
:10037000030E79C0DBFFDB50F80BE842E842E842AD
:10038000E76E020EE7CFDBFF030EDB50070B02E048
:10039000020EDB2A080EDB6A020EDB50F36E080E3B
:1003A000DBCFF4FFF350F45C5EE2080EDB50030F8A
:1003B000E76E060EE7CFDBFFDB50EA6A640FE96EFB
:1003C000000EEA22EF6A070EDB6A080EF36E070ED4
:1003D000DBCFF4FFF350F45C3FE2D950090FE66E37
:1003E000000EDA20E66E010EDBCFE6FFE66A20DBC8
:1003F000E552E552E552E552090EDBCF16F00A0E42
:10040000DBCF17F0070EDB5016C014F017C015F045
:1004100005E0D89014361536E804FBE1060EDB50F3
:10042000EA6A640FE96E000EEA221450EF12010E20
:10043000DB2A030EDB50DF24F36E010EDBCFF4FF6B
:10044000F350F45C06E3010EF36E0B0EF3CFDBFF0B
:1004500003D0070EDB2AB9D70B0EDB0401E103D072
:10046000080EDB2A99D7C1C064F00001010E656F48
:10047000020EDBCF66F0030E146E020EDBCFE7FF39
:100480001450E726020EE7CFDBFFDBCFE6FFE66A7C
:10049000640EE66E000EE66ED1DEE552E552E552E0
:1004A000E552040EF3CFDBFF050EF4CFDBFF040EA5
:1004B000DBCF14F0050EDBCF15F015C014F0156A74
:1004C000020EDB50EA6A640FE96E000EEA2214C0E5
:1004D000EFFF020EDB2AFF0EE76E040EDBCF14F0F7
:1004E000050EDBCF15F0E7501416156A020EDB502F
:1004F000EA6A640FE96E000EEA2214C0EFFF020EF2
:10050000DB280001866F18DF0C0EE15C02E2E16A75
:10051000E552E16EE552E7CFD9FF1200D9CFE6FFF1
:10052000E1CFD9FF0A0EE126080EDB6A090EDB6A6D
:1005300077C0DFFF010EDFCFDBFF040E79C0DBFFEA
:10054000DB50020D050EF3CFDBFF060EDB6A070E54
:10055000DB6A060EDBCF14F0070EDBCF15F0050EBD
:10056000DB50166E176A1650145C1750155853E27C
:10057000D950080FE66E000EDA20E66E010EDBCFD2
:10058000E6FFE66A77DBE552E552E552E552080EF2
:10059000DBCF14F0090EDBCF15F015C014F0156A8F
:1005A000030EE76E060EDBCFE9FF070EDBCFEAFF97
:1005B000E750E926000EEA22640EE926000EEA2240
:1005C00014C0EFFFFF0EE76E080EDBCF14F0090E2C
:1005D000DBCF15F0E7501416156A040EE76E060E11
:1005E000DBCFE9FF070EDBCFEAFFE750E926000E7D
:1005F000EA22640EE926000EEA2214C0EFFFD95069
:10060000060FE96EDACFEAFF020EEE26000EED22AB
:10061000010EDB2A9ED7C1C064F00001030E656F96
:10062000050EDBCF66F0030E146E050EDBCFE7FF81
:100630001450E726050EE7CFDBFFDBCFE6FFE66AC7
:10064000640EE66E000EE66EF9DDE552E552E55207
:10065000E552020EF3CFDBFF030EF4CFDBFF020EF9
:10066000DBCF14F0030EDBCF15F015C014F0156AC4
:10067000050EDB50EA6A640FE96E000EEA2214C030
:10068000EFFF050EDB2AFF0EE76E020EDBCF14F044
:10069000030EDBCF15F0E7501416156A050EDB507C
:1006A000EA6A640FE96E000EEA2214C0EFFF050E3D
:1006B000DB280001866F40DE0A0EE15C02E2E16A9F
:1006C000E552E16EE552E7CFD9FF1200D9CFE6FF40
:1006D000E1CFD9FF060EE12677C0DFFF010EDFCFA5
:1006E000DBFF040E78C0DBFFDB50FF0808E1010EE2
:1006F000F36E020EF3CFDBFF030EDB6A07D0040EAE
:10070000DB5004E1020EDB6A030EDB6A020EDBCF74
:10071000E6FF030EDBCFE6FF010EDBCFE6FFE66A66
:1007200018DAE552E552E552E552050EDB6A0001A2
:100730008751F36E050EDBCFF4FFF350F45C16E245
:10074000050EDB50EA6A740FE96E000EEA22EF50E4
:10075000E66E050EDB50EA6A640FE96E000EEA22CF
:10076000E552E750EF6E050EDB2AE1D787C086F031
:10077000E3DD060EE15C02E2E16AE552E16EE5527C
:10078000E7CFD9FF1200D9CFE6FFE1CFD9FF070E9F
:10079000E12677C0DFFF010EDFCFDBFF00017851DC
:1007A000000EF3507925E66ED950050FE96EDACFC9
:1007B000EAFFE552E750EE6EED6A050EDBCFE6FF8D
:1007C000060EDBCFE6FF010EDBCFE6FFE66A9BDA23
:1007D000E552E552E552E552C1C064F00001060E53
:1007E000656F080E146EDF5014C0E7FFE75204E097
:1007F000E8427F0BE706FCE10001666FDFCF67F0A0
:1008000078C068F079C069F0060EF36E020EF3CF7F
:10081000DBFF060EE66EE66A640EE66E000EE66E1E
:100820000DDDE552E552E552E552030EF3CFDBFF55
:10083000040EF4CFDBFF030EDBCF14F0040EDBCF8E
:1008400015F015C014F0156A14C06AF0FF0EE76EBB
:10085000030EDBCF14F0040EDBCF15F0E7501416B7
:10086000156A14C06BF00001080E866F65DD070E77
:10087000E15C02E2E16AE552E16EE552E7CFD9FFC1
:100880001200D9CFE6FFE1CFD9FF0D0EE126090E08
:10089000DB6A0A0EDB6A0B0EDB6A0C0EDB6A77C0C2
:1008A000DFFF010EDFCFDBFF030E79C0DBFF020E9F
:1008B0007AC0DBFF080EDB6A030EDB50F36E080E16
:1008C000DBCFF4FFF350F45C56E2080EDB50E82473
:1008D000070FEA6A740FE96E000EEA22EF50E66E27
:1008E000D950090FE96EDACFEAFFE552E750EE6E14
:1008F000ED6A080EDB50E824080FEA6A740FE96E0F
:10090000000EEA22EF50E66ED9500B0FE96EDACFF7
:10091000EAFFE552E750EE6EED6A090EDBCF16F006
:100920000A0EDBCF17F016C017F0166A0B0EDB505D
:100930001624146E0C0EDB501720156E060E14C014
:10094000DBFF070E15C0DBFF0E01350E296F060E0B
:10095000DBCFE6FF070EDBCFE6FF010EDBCFE6FFC6
:10096000E66AD1D9E552E552E552E552080EDB2A96
:10097000010EDB2AA1D7C1C064F00001100E656F23
:10098000080E146EDF5014C0E7FFE75204E0E8429F
:100990007F0BE706FCE10001666FDFCF67F0080E12
:1009A000146E030EDB5014C0E7FFE75204E0E84288
:1009B0007F0BE706FCE10001686F030EDBCF69F0F7
:1009C000060EE66EE66A640EE66E000EE66E36DC35
:1009D000E552E552E552E552040EF3CFDBFF050E7A
:1009E000F4CFDBFF040EDBCF14F0050EDBCF15F0E8
:1009F00015C014F0156A14C06AF0FF0EE76E040EFD
:100A0000DBCF14F0050EDBCF15F0E7501416156A96
:100A100014C06BF00001080E866F8EDC0D0EE15CD9
:100A200002E2E16AE552E16EE552E7CFD9FF12003A
:100A3000D9CFE6FFE1CFD9FF040EE126DE6ADD6AF9
:100A4000FD0EDBCF14F0FE0EDBCF15F0FF0E1416FB
:100A50000F0E1516020E14C0DBFF030E15C0DBFFD0
:100A6000020EDBCF08F0030EDBCF09F00F0E0818E3
:100A700001E109505AE00E0E081801E1095054E056
:100A80000D0E081801E109504EE00C0E081801E1A6
:100A9000095048E00B0E081801E1095042E00A0E27
:100AA000081801E109503CE0090E081801E109505D
:100AB00036E0080E081801E1095030E0070E08186A
:100AC00001E109502AE0060E081801E1095024E06E
:100AD000050E081801E109501EE0040E081801E196
:100AE000095018E0030E081801E1095012E0020E47
:100AF000081801E109500CE0010E081801E1095045
:100B000006E0085001E1095001E010D00FD00ED0EE
:100B10000DD00CD00BD00AD009D008D007D006D009
:100B200005D004D003D002D001D000D0DECF14F025
:100B3000DDCF15F014C0F3FF15C0F4FF040EE15C27
:100B400003E200D0E16AE552E16EE552E7CFD9FF5A
:100B50001200D9CFE6FFE1CFD9FF040EE126DE6A0D
:100B6000DD6AFD0EDBCF14F0FE0EDBCF15F0FF0EBD
:100B700014160F0E1516020E14C0DBFF030E15C05F
:100B8000DBFF020EDBCF08F0030EDBCF09F0110E06
:100B9000081801E109505AE0100E081801E1095047
:100BA00054E00F0E081801E109504EE00E0E08182F
:100BB00001E1095048E00D0E081801E1095042E03A
:100BC0000C0E081801E109503CE00B0E081801E179
:100BD000095036E00A0E081801E1095030E0070E0E
:100BE000081801E109502AE0060E081801E1095031
:100BF00024E0050E081801E109501EE0040E081853
:100C000001E1095018E0030E081801E1095012E053
:100C1000020E081801E109500CE0010E081801E16C
:100C2000095006E0085001E1095001E010D00FD052
:100C30000ED00DD00CD00BD00AD009D008D007D0E0
:100C400006D005D004D003D002D001D000D0DECF32
:100C500014F0DDCF15F014C0F3FF15C0F4FF040E3F
:100C6000E15C03E200D0E16AE552E16EE552E7CFD4
:100C7000D9FF1200D9CFE6FFE1CFD9FF040EE1265C
:100C8000DE6ADD6AFD0EDBCF14F0FE0EDBCF15F061
:100C9000FF0E14160F0E1516020E14C0DBFF030E06
:100CA00015C0DBFF020EDBCFE9FF030EDBCFEAFF4F
:100CB000010ED890E936EA36E806FBE1010EE92696
:100CC0000E0EEA22EECF14F0EFCF15F0FB0EDBCFC5
:100CD000E9FFFC0EDBCFEAFF14C0EEFF15C0EDFF0D
:100CE000DECF14F0DDCF15F014C0F3FF15C0F4FF14
:100CF000040EE15C03E200D0E16AE552E16EE552E8
:100D0000E7CFD9FF1200D9CFE6FFE1CFD9FF040E1C
:100D1000E126DE6ADD6AFD0EDBCF14F0FE0EDBCFCE
:100D200015F0FF0E14160F0E1516020E14C0DBFF81
:100D3000030E15C0DBFF020EDBCFE9FF030EDBCF96
:100D4000EAFF010ED890E936EA36E806FBE1150E17
:100D5000E9260E0EEA22FB0EDBCFEEFFFC0EDBCF08
:100D6000EDFF020EDBCF08F0030EDBCF09F0100E13
:100D7000081801E1095001E1A2D00F0E081801E1A5
:100D8000095001E19BD00E0E081801E1095001E164
:100D900094D00D0E081801E1095001E18DD00C0E20
:100DA000081801E1095001E186D00B0E081801E195
:100DB000095001E17FD00A0E081801E1095001E154
:100DC00078D0090E081801E109506CE0080E0818E7
:100DD00001E1095060E0070E081801E1095054E0F4
:100DE000060E081801E1095048E0050E081801E157
:100DF00009503CE0040E081801E1095030E0030EF0
:100E0000081801E1095024E0020E081801E1095018
:100E100018E0010E081801E109500CE0085001E14A
:100E2000095001E04DD0FB0EDBCFADF0FC0EDBCF67
:100E3000AEF046D0FB0EDBCFAFF0FC0EDBCFB0F058
:100E40003FD0FB0EDBCFB1F0FC0EDBCFB2F038D0E1
:100E5000FB0EDBCFB3F0FC0EDBCFB4F031D0FB0EDA
:100E6000DBCFB5F0FC0EDBCFB6F02AD0FB0EDBCF2C
:100E7000B7F0FC0EDBCFB8F023D0FB0EDBCFB9F020
:100E8000FC0EDBCFBAF01CD0FB0EDBCFBBF0FC0EB0
:100E9000DBCFBCF015D0FB0EDBCFBDF0FC0EDBCF03
:100EA000BEF00ED0FB0EDBCFBFF0FC0EDBCFC0F0F0
:100EB00007D006D005D004D003D002D001D000D096
:100EC000DECF14F0DDCF15F014C0F3FF15C0F4FF32
:100ED000040EE15C03E200D0E16AE552E16EE55206
:100EE000E7CFD9FF1200D9CFE6FFE1CFD9FF040E3B
:100EF000E126DE6ADD6ADECF14F0DDCF15F0FD0EEF
:100F0000DBCF16F0FE0EDBCF17F01650145C175037
:100F100015581AE2020EDB6A030EDB6A020EDBCF03
:100F200014F0030EDBCF15F00A0E145C000E1558FA
:100F300006E2020EDB2A030E01E3DB2AEFD7DF2AEB
:100F4000010E01E3DB2AD7D7040EE15C02E2E16A7D
:100F5000E552E16EE552E7CFD9FF1200D9CFE6FFA7
:100F6000E1CFD9FF040EE1260001010EC16F00019F
:100F70008751040801E31CD100017551100A01E1F9
:100F80009AD01F0A54E00E0A07E0020A05E0060A9A
:100F900003E0030A01E00CD1080E0001875D46E37F
:100FA0009D9AF29E0001C1510001745D3BE10A0E61
:100FB000E66EE66A98DFE552E552060EE66EE66AF0
:100FC000740EE66E000EE66E1EEC01F0E552E55280
:100FD000E552E552F3CFDEFFF4CFDDFF00017A5199
:100FE0000E012A5D1EE100017B510E012B5D19E10E
:100FF0008B7C0001750503E1ABEC01F011D0030E11
:10100000755D03E18EEC02F00BD0050E755D03E11A
:1010100066EC03F005D0060E755D02E1C3EC03F04B
:1010200001D08B960001876BF28E9D8AC1D07A51D8
:10103000E66ED950020FE96EDACFEAFFE552E750CB
:10104000EE6EED6AD950020FE96EDACFEAFF090EB3
:10105000EE26000EED22020EDBCF14F0030EDBCFE6
:1010600015F000011450875D000E155423E30001B4
:10107000C1510001745D1CE1020EDBCF14F0030EC0
:10108000DBCF15F0020E145E000E155A14C0E6FFF9
:1010900015C0E6FF740EE66E000EE66E1EEC01F063
:1010A000E552E552E552E552F3CFDEFFF4CFDDFF26
:1010B0000001876B7DD07851000EF3507925E66EE4
:1010C000D950020FE96EDACFEAFFE552E750EE6E33
:1010D000ED6A020E086E096ADBCF0DF0030EDBCF5E
:1010E0000EF0D3EC0DF0020E06C0DBFF030E07C0BE
:1010F000DBFFD950020FE96EDACFEAFF090EEE26C8
:10110000000EED22020EDBCF14F0030EDBCF15F044
:1011100000011450875D000E155449E39D9A0001AB
:10112000C1510001745D40E1020EDBCF14F0030EEB
:10113000DBCF15F0020E145E000E155A14C0E6FF48
:1011400015C0E6FF740EE66E000EE66E1EEC01F0B2
:10115000E552E552E552E552F3CFDEFFF4CFDDFF75
:10116000020EDBCFE9FF030EDBCFEAFF020EE95EE2
:10117000000EEA5A740EE926000EEA22EF500E0124
:101180002A5D12E1020EDBCFE9FF030EDBCFEAFF9F
:10119000E906000EEA5A740EE926000EEA22EF5024
:1011A0002B5D02E141EC04F00001876B9D8A00D0C9
:1011B000040EE15C02E2E16AE552E16EE552E7CF3E
:0411C000D9FF120041
:0C11C400FC0ECF6E180ECE6ECF0ECD14B8
:1011D0001009CD6ECD823F0ECD140009CD6E9D80DD
:1011E00012000001C26BC36BC66BC76BCA6BCB6BC3
:1011F00062C060F063C061F0C451C51113E0C46BFC
:10120000C56B010EC26FC36B0001855100080AE275
:101210008507855107E100018751000803E2876BCC
:101220000001846B0001CC51CD1105E0CC6BCD6B7E
:10123000010ECA6FCB6BC851C9110FE0C86BC96BE7
:10124000010EC66FC76BCE2B000ECF23140ECE5DE2
:10125000000ECF5902E3CE6BCF6B120094940F01B6
:101260000C0E506F996AA394A4944C0ECA6EC60ECD
:10127000CB6E516B1200D9CFE6FFE1CFD9FF040E40
:10128000E126DE6ADE6ADE6ADD6ADD52DD52FD0ECF
:10129000DBCF08F0FE0EDBCF09F067EC0CF007C0E7
:1012A00014F008C015F009C016F00AC017F00A0EB5
:1012B0000C6ED70E0D6E230E0E6E3C0E0F6E14C00C
:1012C00007F015C008F016C009F017C00AF066EC68
:1012D0000DF007C0DEFF08C0DEFF09C0DEFF0AC058
:1012E000DDFFDD52DD52D9CFE9FFDACFEAFFEECFE5
:1012F00014F0EECF15F0EECF16F0EFCF17F00C6A2A
:10130000800E0D6E540E0E6E440E0F6E14C007F05C
:1013100015C008F016C009F017C00AF066EC0DF011
:1013200007C0DEFF08C0DEFF09C0DEFF0AC0DDFF28
:10133000DD52DD52DECF07F0DECF08F0DECF09F060
:10134000DDCF0AF0DD52DD52F1EC0DF008C014F0F3
:1013500009C015F0D89015321432D89015321432D5
:1013600014C051FFDECF07F0DECF08F0DECF09F06A
:10137000DDCF0AF0DD52DD52F1EC0DF008C014F0C3
:1013800009C015F0030E1416000E1516040ED890A1
:1013900014361536E804FBE114500F015013040E07
:1013A000E15C02E2E16AE552E16EE552E7CFD9FF86
:1013B0001200D9CFE6FFE1CFD9FF0C0EE126DE6A9D
:1013C000DE6ADE6ADD6ADD52DD52040EDB6A050E7E
:1013D000DB6A060EDB6A070EDB6A080EDB6A090EA3
:1013E000DB6A0A0EDB6A0B0EDB6AFB0EDBCF08F052
:1013F000FC0EDBCF09F067EC0CF007C020F008C052
:1014000021F009C022F00AC023F00C6A0D6A0E6AAE
:10141000470E0F6E20C007F021C008F022C009F06F
:1014200023C00AF013EC0DF007C01CF008C01DF03B
:1014300009C01EF00AC01FF06F0E0C6E120E0D6E6A
:10144000030E0E6E400E0F6E1CC007F01DC008F09C
:101450001EC009F01FC00AF066EC0DF007C018F0BE
:1014600008C019F009C01AF00AC01BF0330E0C6E48
:10147000B30E0D6EF50E0E6E430E0F6E18C007F014
:1014800019C008F01AC009F01BC00AF066EC0DF094
:1014900007C014F008C015F009C016F00AC017F014
:1014A000660E0C6EA60E0D6E970E0E6EC30E0F6EB0
:1014B00014C007F015C008F016C009F017C00AF0F4
:1014C0007DEC0CF0040E07C0DBFF050E08C0DBFF4F
:1014D000060E09C0DBFF070E0AC0DBFFFD0EDBCFE7
:1014E00008F0FE0EDBCF09F067EC0CF007C014F03B
:1014F00008C015F009C016F00AC017F00A0E0C6EED
:10150000D70E0D6E230E0E6E3C0E0F6E14C007F03C
:1015100015C008F016C009F017C00AF066EC0DF00F
:1015200007C0DEFF08C0DEFF09C0DEFF0AC0DDFF26
:10153000DD52DD529CC0A0F09DC0A1F09EC0A2F083
:101540009FC0A3F098C09CF099C09DF09AC09EF0F7
:101550009BC09FF0D9CFE9FFDACFEAFFEECF14F0BE
:10156000EECF15F0EECF16F0EFCF17F0040EDBCF75
:1015700018F0050EDBCF19F0060EDBCF1AF0070EC0
:10158000DBCF1BF018C00CF019C00DF01AC00EF024
:101590001BC00FF014C007F015C008F016C009F00A
:1015A00017C00AF07CEC0CF007C098F008C099F066
:1015B00009C09AF00AC09BF098C00CF099C00DF0D9
:1015C0009AC00EF09BC00FF088C007F089C008F0E9
:1015D0008AC009F08BC00AF066EC0DF007C018F065
:1015E00008C019F009C01AF00AC01BF09CC00CF02A
:1015F0009DC00DF09EC00EF09FC00FF08CC007F094
:101600008DC008F08EC009F08FC00AF066EC0DF0B6
:1016100007C01CF008C01DF009C01EF00AC01FF072
:101620001CC00CF01DC00DF01EC00EF01FC00FF04E
:1016300018C007F019C008F01AC009F01BC00AF062
:101640007CEC0CF007C014F008C015F009C016F0CF
:101650000AC017F0A0C00CF0A1C00DF0A2C00EF09F
:10166000A3C00FF090C007F091C008F092C009F03D
:1016700093C00AF066EC0DF007C020F008C021F01E
:1016800009C022F00AC023F020C00CF021C00DF0E8
:1016900022C00EF023C00FF014C007F015C008F0F0
:1016A00016C009F017C00AF07DEC0CF007C0A4F0DA
:1016B00008C0A5F009C0A6F00AC0A7F0A4C00CF0AD
:1016C000A5C00DF0A6C00EF0A7C00FF0A8C007F08F
:1016D000A9C008F0AAC009F0ABC00AF07DEC0CF07C
:1016E00007C0A8F008C0A9F009C0AAF00AC0ABF072
:1016F00094C008F095C009F069EC0CF007C014F034
:1017000008C015F009C016F00AC017F014C00CF09C
:1017100015C00DF016C00EF017C00FF0A8C007F0EE
:10172000A9C008F0AAC009F0ABC00AF020EC0EF086
:10173000010A0FE194C008F095C009F069EC0CF0C3
:1017400007C0A8F008C0A9F009C0AAF00AC0ABF011
:1017500030D096C008F097C009F069EC0CF007C0D3
:1017600014F008C015F009C016F00AC017F014C034
:101770000CF015C00DF016C00EF017C00FF0A8C089
:1017800007F0A9C008F0AAC009F0ABC00AF029EC24
:101790000EF0010A0EE196C008F097C009F069EC5E
:1017A0000CF007C0A8F008C0A9F009C0AAF00AC050
:1017B000ABF0146A156AC80E166E420E176E000161
:1017C00094519625246E95519721256E24C008F0DA
:1017D00025C009F069EC0CF007C020F008C021F02A
:1017E00009C022F00AC023F020C00CF021C00DF087
:1017F00022C00EF023C00FF0A8C007F0A9C008F067
:10180000AAC009F0ABC00AF013EC0DF007C01CF041
:1018100008C01DF009C01EF00AC01FF00C6A0D6A56
:10182000C80E0E6E420E0F6E1CC007F01DC008F0F1
:101830001EC009F01FC00AF066EC0DF007C018F0DA
:1018400008C019F009C01AF00AC01BF018C00CF04B
:1018500019C00DF01AC00EF01BC00FF014C007F035
:1018600015C008F016C009F017C00AF07CEC0CF0A7
:10187000080E07C0DBFF090E08C0DBFF0A0E09C017
:10188000DBFF0B0E0AC0DBFF080EDBCF07F0090EF3
:10189000DBCF08F00A0EDBCF09F00B0EDBCF0AF02E
:1018A000F1EC0DF008C014F009C015F014C0E6FF0B
:1018B00015C0E6FFE0DCE552E5520C0EE15C02E209
:0E18C000E16AE552E16EE552E7CFD9FF120072
:0218CE00019E79
:1018D00008D0019E09AE05D0086C091EE86A0922ED
:1018E000018E09C003F008C002F0136A126A8E0E5E
:1018F000046E056AA3EF0EF00F7E016ADFEC0EF0B6
:10190000F7EC0EF001B687EF0EF001A20AD001AAA3
:1019100003D001BE87EF0EF001A493EF0EF090EF1D
:101920000EF001AA05D001AC93EF0EF090EF0EF08F
:1019300001A00AD001A808D001BE04D001A402D0A1
:101940009CEF0EF0A0EF0EF0126A056A0F500A5CD1
:10195000116E10E307C013F008C002F009C003F0D5
:101960000AC010F00CC007F00DC008F00EC009F05E
:10197000013A09D00CC013F00DC002F00EC003F004
:101980000FC010F0116C019E01BC018E10C004F05C
:1019900001B0CFEF0EF01A0E1160CFEF0EF0046A17
:1019A0000A6A01A408D0076C081E091E0A1EE86A0C
:1019B000082209220A2201AC08D0136C021E031E61
:1019C000041EE86A022203220422066A115207E07A
:1019D0000A340932083207320632112EF9D707507D
:1019E000132608500222095003220A50042206C07E
:1019F00012F0019E04AE0BD0126C131E021E031EC9
:101A0000041EE86A1322022203220422018E04A08B
:101A100006D0D8800332023213321232102A10C09C
:101A200004F0A3EF0EF0016ADFEC0EF0F7EC0EF01D
:101A300001B687EF0EF001A205D001BA87EF0EF0D4
:101A40008EEF0EF001BA9AEF0EF001A005D001B8AA
:101A500087EF0EF09AEF0EF001B88EEF0EF0056AE8
:101A60007F0E0A24046EE86A05220F50045EE86ABD
:101A7000055A1A0E106E0A6A126A136A026A036A1B
:101A80000C50075E0D50085A0E50095A000E0A5AA3
:101A900009E70C5007260D5008220E500922000EAF
:101AA0000A2201D0128AD8900736083609360A363B
:101AB000D8901236133602360336102EE1D709506D
:101AC00008100710D8A4128AA3EF0EF0016ADFEC09
:101AD0000EF0F7EC0EF001B687EF0EF001A205D084
:101AE00001B887EF0EF08EEF0EF001AA05D001B01D
:101AF00087EF0EF08EEF0EF001B002D001A802D0F9
:101B00009AEF0EF0056A0F500A24046EE86A052267
:101B10007E0E045EE86A055A126A136A026A036A54
:101B20000E500902F4CF03F0F3CF02F00D5009027A
:101B3000F3501326F4500222000E03220E50080226
:101B4000F3501326F4500222000E03220C50090217
:101B5000F3501226F4501322000E022203220D50DD
:101B60000802F3501226F4501322000E0222032220
:101B70000E500702F3501226F4501322000E0222D8
:101B800003220C500802F4501226000E13220222E7
:101B900003220D500702F4501226000E13220222D7
:101BA0000322A3EF0EF008C012F008500D02F4CF8C
:101BB00007F0F3CF06F009500E02F4CF09F0F3CF8F
:101BC00008F00D02F3500726F4500822E86A0922B3
:101BD00012500E02F3500726F4500822E86A092238
:101BE000000C016ADFEC0EF001B6FBEF0DF001A274
:101BF0000ED001B405D07F0E096EFF0E086E1FD007
:101C0000800E096E086A1BD0096A086A18D001B0F4
:101C1000FBD78F0E0A60EDD77E0E0A64F5D78E0EC5
:101C20000A5C05E0D890093208320A2AF8D701A4E4
:101C300006D0086C091EE86A092209AEE5D7120031
:101C400032EC0EF001B6000C01B0000C01B4000C37
:101C5000010C32EC0EF001B6000C01B0000C01A436
:101C6000000C010C016ADFEC0EF0F7EC0EF001B68F
:101C7000120001AE08D001A004D001A802D001805A
:101C80001200019012000F500A5C0BE10E50095C2B
:101C900008E10D50085C05E10C50075C02E1018091
:101CA0001200D8A002D0018E10D00A500FC00AF046
:101CB0000F6E09500EC009F00E6E08500DC008F0EE
:101CC0000D6E07500CC007F00C6E0F500A5C10E050
:101CD000FF0F09E0019001B403D001AE01841200AE
:101CE00001AE019412000F2AD8900E320D320C3240
:101CF0000C50075E0D50085A0E50095A09BEEAD71B
:101D0000D8900736083609360A2EF8D7C8D77F0E7E
:101D10000A6EFF0E096E086E076E12007F0E01BE7E
:101D2000FF0E0A6E02D07F0E0A6E800E096E086AE0
:101D3000076AF3D701AE04D0800E0A6E096AF7D79E
:101D40000A6A096AF4D70350021013101210F8E05F
:101D500005BEF0D703BE0CD004500510EBE0D890C0
:101D600012361336023603360406D8A00506F2D71B
:101D70000550D4E10428D2E012AE11D07F0E121427
:101D800002E113A00CD0132AE86A0222032207E31F
:101D9000D880033202321332042A0428BFE00450F0
:101DA000C9E013C007F002C008F00334096E043024
:101DB0000A6E09320A9E01BE0A8E8DEF0EF00936B8
:101DC0000A3602E30184017E06E101800A6A096A9B
:101DD000086A076A12000A2803E0D8800932120054
:101DE000D890093202E101821200018612000E36FB
:101DF0000F3602E3018C017E06E101880F6A0E6A4C
:101E00000D6A0C6A12000F2803E0D8800E3212000F
:0A1E1000D8900E32EAE1018A1200B8
:061E1A00180E9412280EC0
:101E2000C66EC56A0B0EC86E12001F0EC51403E104
:101E3000C750040B02E0F9D7F8D71200C580120092
:101E4000C5821200C5841200C59AC5881200C58AD1
:101E5000C58812009EA6FED79E961200C586C7A012
:101E6000FED7C95000D01200D9CFE6FFE1CFD9FF8D
:101E7000FE0EDB50C96EC6AE03D0000E03D002D0FA
:101E8000010E00D0E552E7CFD9FF1200D9CFE6FF0F
:101E9000E1CFD9FF020EE126FD0EDBCF14F0FE0EDE
:101EA000DBCF15F015C014F0156A1F0E1414DF6E89
:101EB000FD0EDB50E76E010EE7CFDBFFB6DFBEDFC6
:101EC000C9DF900EE66ED0DFE552C5BCFED7C2DF9B
:101ED000FC0EDBCFE6FFC8DFE552C5BCFED7BADF9C
:101EE000B1DFB8DF020EE15C02E2E16AE552E16EC9
:101EF000E552E7CFD9FF1200D9CFE6FFE1CFD9FFF6
:101F0000020EE126FD0EDBCF14F0FE0EDBCF15F046
:101F100015C014F0156A1F0E1414DF6EFD0EDB5091
:101F2000E76E010EE7CFDBFF80DF88DF93DFDFCFD7
:101F3000E6FF9ADFE552C5BCFED78CDF010EDBCF92
:101F4000E6FF92DFE552C5BCFED784DFFC0EDB5016
:101F500015E0FA0EDBCFE9FFFB0EDBCFEAFFEF5017
:101F6000E66E82DFE552C5BCFED774DFFA0EDB2ACF
:101F7000FB0E01E3DB2AFC0EDB06E8D763DF6ADF3A
:101F8000020EE15C02E2E16AE552E16EE552E7CF62
:101F9000D9FF1200D9CFE6FFE1CFD9FF020EE1262B
:101FA00044DF4CDF57DF910EE66E5EDFE552C5BCC5
:101FB000FED750DF53DFDE6EDD6A4CDF4FDF166E7B
:101FC000176A086A010E096EDECF0DF0DDCF0EF044
:101FD000D3EC0DF006501624146E07501720156E22
:101FE00014C0DEFF15C0DDFF35DF31DF33DF2ADF50
:101FF00031DFDECF14F0DDCF15F014C0F3FF15C0D4
:10200000F4FF020EE15C03E200D0E16AE552E16E0A
:10201000E552E7CFD9FF1200D9CFE6FFE1CFD9FFD4
:10202000020EE126FD0EDBCF14F0FE0EDBCF15F025
:1020300015C014F0156A1F0E1414DF6EFD0EDB5070
:10204000E76E010EE7CFDBFFF0DEF8DE03DFDFCF68
:10205000E6FF0ADFE552C5BCFED7FCDE010EDBCF92
:10206000E6FF02DFE552C5BCFED7F4DEE9DEF2DEB4
:10207000FC0EDB501AE0F2DEE66EFA0EDBCFE9FF73
:10208000FB0EDBCFEAFFE552E750EF6EE3DEFA0E20
:10209000DB2AFB0E01E3DB2AFC0EDB06DB5002E150
:1020A000D6DE01D0D1DED6DEE3D7CCDED3DE020E23
:1020B000E15C02E2E16AE552E16EE552E7CFD9FF69
:0220C00012000C
:0E20C20000C1814001C0804101C0804100C1C9
:1020D000814001C0804100C1814000C1814001C0F8
:1020E000804101C0804100C1814000C1814001C0E8
:1020F000804100C1814001C0804101C0804100C1D8
:10210000814001C0804100C1814000C1814001C0C7
:10211000804100C1814001C0804101C0804100C1B7
:10212000814000C1814001C0804101C0804100C1A7
:10213000814001C0804100C1814000C1814001C097
:10214000804101C0804100C1814000C1814001C087
:10215000804100C1814001C0804101C0804100C177
:10216000814000C1814001C0804101C0804100C167
:10217000814001C0804100C1814000C1814001C057
:10218000804100C1814001C0804101C0804100C147
:10219000814001C0804100C1814000C1814001C037
:1021A000804101C0804100C1814000C1814001C027
:1021B000804100C1814001C0804101C0804100C117
:1021C000814000C0C101C30302C2C60607C705C5DE
:1021D000C404CC0C0DCD0FCFCE0E0ACACB0BC9094F
:1021E00008C8D81819D91BDBDA1A1EDEDF1FDD1D5F
:1021F0001CDC14D4D515D71716D6D21213D311D18F
:10220000D010F03031F133F3F23236F6F737F535DE
:1022100034F43CFCFD3DFF3F3EFEFA3A3BFB39F90E
:10222000F83828E8E929EB2B2AEAEE2E2FEF2DEDDE
:10223000EC2CE42425E527E7E62622E2E323E1214E
:1022400020E0A06061A163A3A26266A6A767A5655E
:1022500064A46CACAD6DAF6F6EAEAA6A6BAB69A9CE
:10226000A86878B8B979BB7B7ABABE7E7FBF7DBDDE
:10227000BC7CB47475B577B7B67672B2B373B1710E
:1022800070B05090915193535292965657975595DE
:1022900094549C5C5D9D5F9F9E5E5A9A9B5B99598E
:1022A0005898884849894B8B8A4A4E8E8F4F8D4D5E
:1022B0004C8C4484854587474686824243834181CE
:0222C00080405C
:0E22C200050EC26E0F01020E5D6F5C6BBF0E4B
:1022D000C06E1200D9CFE6FFE1CFD9FF160EE1267E
:1022E000100EDB6A110EDB6A120EDB6AC2B2FED779
:1022F000C450E66ED950140FE96EDACFEAFFE5520A
:10230000E750EE6EED6A140EDBCF16F0150EDBCF44
:1023100017F016C017F0166AC35000011624146E89
:10232000000E1720156E140E14C0DBFF150E15C01D
:10233000DBFFD9CF14F0DACF15F0120EDB50020D0F
:102340001450F324E96E1550F420EA6E140EDBCF1E
:10235000EEFF150EDBCFEDFF120EDB50070840E15C
:10236000140EDB6A150EDB6A130EDB6A080EF36EC1
:10237000130EDBCFF4FFF350F45C1DE2D9CF16F05F
:10238000DACF17F0130EDB50020D1650F324E96E6E
:102390001750F420EA6EEECF14F0EFCF15F0D950BD
:1023A000140FE96EDACFEAFF1450EE261550ED2235
:1023B000130EDB2ADBD7140EDBCF14F0150EDBCFA8
:1023C00015F0030ED89015321432E804FBE1100E1C
:1023D00014C0DBFF110E15C0DBFF120EDB6A02D04A
:1023E000120EDB2AD9CF1AF0DACF1BF0DB50020D28
:1023F0001A50F324E96E1B50F420EA6EEECF18F069
:10240000EFCF19F018C008F019C009F067EC0CF014
:1024100007C014F008C015F009C016F00AC017F084
:1024200014C006F015C007F016C008F017C009F078
:10243000160EE15C03E200D0E16AE552E16EE5527E
:06244000E7CFD9FF1200F6
:0A2446009392948E949C330EAF6EB7
:10245000AB8EAC84AC98AC8AAB889D8A9D988A82FE
:102460001200D9CFE6FFE1CFD9FFFE0EDB50AD6EF3
:10247000ACA2FED7E552E7CFD9FF1200D9CFE6FFD5
:10248000E1CFD9FF020EE1268A92DE6ADD6ADECF55
:1024900014F0DDCF15F0640E145C000E155805E243
:1024A000DF2A010E01E3DB2AF2D7DE6ADD6ADECF26
:1024B00014F0DDCF15F0FB0EDBCF16F0FC0EDBCFFA
:1024C00017F01650145C1750155815E2FD0EDBCFAF
:1024D00014F0FE0EDBCF15F0DE501424E96EDD5053
:1024E0001520EA6EEF50E66EBCDFE552DF2A010EE2
:1024F00001E3DB2ADCD78A82020EE15C02E2E16AB8
:0C250000E552E16EE552E7CFD9FF120072
:04250C00160EF66E43
:10251000020EF76E000EF86E00010900F550D56F3F
:102520000900F550D66F03E1D56701D03DD0090011
:10253000F550D06F0900F550D16F0900F550D26FFA
:1025400009000900F550E96E0900F550EA6E09002E
:1025500009000900F550D36F0900F550D46F090048
:102560000900F6CFD7F0F7CFD8F0F8CFD9F0D0C028
:10257000F6FFD1C0F7FFD2C0F8FF0001D35302E14C
:10258000D45307E00900F550EE6ED307F8E2D40704
:10259000F9D7D7C0F6FFD8C0F7FFD9C0F8FF0001C0
:0A25A000D507000ED65BBFD712006E
:0625AA00D9CFE6FFE1CFEE
:1025B000D9FFFE0EDB50746E7F9E7F9C7F80735030
:1025C00000D0E552E7CFD9FF1200D9CFE6FFE1CF27
:1025D000D9FF0400FE0EDB50746EFD0EDB50736EEF
:1025E0007F9E7F9C7F84F29E550E7E6EAA0E7E6E2D
:1025F0007F82F28E7F947FB2FED7E552E7CFD9FF7C
:022600001200C6
:0E260200FF0EE350276EEF0E01D0F30EE76ED1
:10261000E72E08EF13F00C0E266EE76AE72E0EEF9A
:1026200013F0262E0DEF13F0272E06EF13F01200F5
:10263000410EF36E00EE00F00E0E01D81200EA60BB
:1026400002D0EE6AFCD7F350E9601200EE6AFCD7C4
:102650001DEE00F02DEE00F0F86A019C86EC12F001
:0C26600003EC00F05FEC00F0FBD7120070
:04266C00000000402A
:102670000000803F00000000E80318FC000000009C
:10268000000000000000000000000000000000004A
:10269000000000000000000000000000000000003A
:1026A000000000000000000000000000000000002A
:0C26B0000000000000000000000000001E
:0426BC00000000001A
:1026C000000000000000000000000000000000000A
:0126D0000009
:020000040030CA
:0100000015EA
:0100010008F6
:010003007C80
:00000001FF
